S013000044656275672F6B65797061642E7331394D
S315200000000248854600F0CAF8FEE7C04600C0012037
S3152000001080B500AF094B0A4A1A600A4B1A68094B89
S315200000201204120C1A60074B1A68064BAA210904FF
S315200000300A431A60C046BD4680BDC046000C024039
S31520000040555500550C0C024080B582B000AF786043
S315200000507B68042B1BD07B68042B1CDC7B68032B62
S3152000006011D07B68032B16DC7B68012B03D07B68C1
S31520000070022B04D00FE00C4B10221A700FE00A4B13
S3152000008020221A700BE0084B40221A7007E0064B1C
S3152000009080221A7003E0044B00221A70C046C04624
S315200000A0BD4602B080BDC046150C024080B582B068
S315200000B000AF124AFB1D12781A70FB1D1B7808220E
S315200000C0134001D0042315E0FB1D1B7804221340A6
S315200000D001D003230EE0FB1D1B780222134001D022
S315200000E0022307E0FB1D1B780122134001D00123C8
S315200000F000E000231800BD4602B080BD110C02406E
S31520000100B0B586B000AF3B00154A13CA13C31268B8
S315200001101A6001237B611BE07B691800FFF794FFBF
S3152000012013257C19FFF7C2FF0300237029007B18D3
S315200001301B78002B09D07B69013B9A007B181B7822
S31520000140013BD3183A00D35C06E07B6901337B611F
S315200001507B69042BE0DDFF231800BD4606B0B0BD49
S31520000160BC010020B0B586B000AF0200FB1D1A709E
S3152000017008203B18074A32CA32C312681A60FB1D90
S315200001801B7805493A18D35C0B70C046BD4606B0AD
S31520000190B0BDC046CC010020140C024090B583B0FF
S315200001A000AFFFF735FFFC1DFFF7AAFF0300237002
S315200001B0FB1D1B781800FFF7D5FFF4E70102030AA1
S315200001C00405060B0708090C0E000F0D3F065B4FB2
S311200001D0666D7D077F67777A395E79714E
S70520000000DA
