S01A000044656275672F6B6579625F656E68616E6365642E73313984
S315200000000248854600F0F4F8FEE7C04600C001200D
S3152000001080B500AF094B0A4A1A600A4B1A68094B89
S315200000201204120C1A60074B1A68064BAA210904FF
S315200000300A431A60C046BD4680BDC046000C024039
S31520000040555500550C0C024080B582B000AF786043
S315200000507B68052B19D87B689A00104BD3181B6830
S315200000609F460F4B10221A7013E00D4B20221A7058
S315200000700FE00B4B40221A700BE0094B80221A70BE
S3152000008007E0074BF0221A7003E0054B00221A7096
S31520000090C046C046BD4602B080BDC04628020020EC
S315200000A0150C024080B582B000AFBB1D00221A801D
S315200000B001233B6014E0BB1DBA1D128812011A8071
S315200000C03B681800FFF7C0FF0A4B1B78DBB299B2DA
S315200000D0BB1DBA1D12888A181A803B6801333B6003
S315200000E03B68042BE7DDBB1D1B881800BD4602B00C
S315200000F080BDC046110C024090B589B000AF786033
S315200001000C23FB182A4A13CA13C312681A601E212D
S315200001107B18284A1A807B181B887A68134001D1DD
S31520000120FF2341E07B680222134001D000233BE0FD
S315200001307A6880235B01134001D0012334E07A687A
S3152000014080239B01134001D002232DE07A6880236F
S31520000150DB01134001D0032326E07A6880235B006D
S31520000160134001D004231FE07A6880239B001340AC
S3152000017001D0052318E07A688023DB00134001D0E4
S31520000180062311E07B681022134001D007230BE0E1
S315200001907B682022134001D0082305E07B6840229B
S315200001A0134001D00923FFE71800BD4609B090BDD2
S315200001B04002002072770000B0B586B000AF020082
S315200001C0FB1D1A7008203B18074A32CA32C3126830
S315200001D01A60FB1D1B7805493A18D35C0B70C04684
S315200001E0BD4606B0B0BDC04650020020140C0240E9
S315200001F090B583B000AFFFF70BFFBC1DFFF752FF92
S3152000020003002380BB1D1B887C1D1800FFF774FF8D
S31520000210030023707B1D1B78FF2BEED07B1D1B78E4
S315200002201800FFF7C9FFE8E78A00002062000020D7
S315200002306A000020720000207A0000208200002040
S315200002400102030A0405060B0708090C0E000F0D10
S315200002503F065B4F666D7D077F67777A395E7971DA
S309200002600000000074
S70520000000DA
